:020000040800F2
:10000000B0B584B000AF0023FB600023BB600023C9
:100010007B60052000F0EEF8F8600A2000F0EAF8B6
:10002000B860B968F86800F0D8F87860F96878685E
:1000300000F073F87860F86800F0ECFB04460D46B9
:10004000F86800F0E7FB02460B462046294600F020
:1000500071F802460B461046194600F0DFFE0346D3
:100060007B60786800F0D6FB04460D46F86800F027
:10007000D1FB02460B462046294600F06FF80246A7
:100080000B461046194600F0C9FE03467B60F8682F
:1000900000F088F87860F86800F090F87860F96807
:1000A000786800F0C3F87860F86800F0B3FB0446A5
:1000B0000D46B86800F0AEFB02460B4620462946C6
:1000C00000F0C2F802460B461046194600F0A6FEA4
:1000D00003467B60786800F09DFB04460D46786817
:1000E00000F098FB02460B462046294600F0E7F850
:1000F00002460B461046194600F090FE03467B6010
:10010000B86800F0BFF87860786800F0C8F87860E8
:10011000002318461037BD46B0BD80B483B000AF91
:10012000786039607A683B68D31A18460C37BD4648
:1001300080BC704780B584B000AFC7E90201C7E951
:100140000023D7E90023D7E9020100F0CDFB0246E6
:100150000B46104619461037BD4680BD80B584B0A9
:1001600000AFC7E90201C7E900234FF000024FF0DA
:100170000003D7E9000100F01FFE0346002B08D161
:10018000D7E90023D7E9020100F0D8FC02460B466C
:1001900003E04FF000024FF00003104619461037FD
:1001A000BD4680BD80B483B000AF78607B6803FB40
:1001B00003F318460C37BD4680BC704780B483B04B
:1001C00000AF78607B6803FB03F37A6802FB03F3FC
:1001D00018460C37BD4680BC704780B483B000AF72
:1001E000786039607A683B68134418460C37BD461E
:1001F00080BC704780B485B000AF78600023FB609E
:1002000007E0094B1B680133074A1360FB680133A1
:10021000FB60FA687B689A42F3DB034B1B68184665
:100220001437BD4680BC70470000002080B483B006
:1002300000AF786039607A683B68D31A0233184699
:100240000C37BD4680BC704780B584B000AFC7E9AD
:100250000201C7E90023D7E90023D7E9020100F032
:1002600043FB02460B46104619464FF000024FF082
:10027000804300F083F902460B46104619461037BA
:10028000BD4680BD80B483B000AF78607B6803FB5F
:1002900003F3023318460C37BD4680BC704780B468
:1002A00083B000AF78607B6803FB03F37A6802FBDE
:1002B00003F3023318460C37BD4680BC704780B547
:1002C00084B000AFC7E90201C7E900234FF0000284
:1002D0004FF00003D7E9000100F06EFD0346002B4C
:1002E00012D1D7E90023D7E9020100F027FC02462A
:1002F0000B46104619464FF000024FF0804300F0C5
:100300003DF902460B4603E04FF000024FF00003B8
:10031000104619461037BD4680BD000070B54FF03D
:10032000FF0C4CF4E06C1CEA11541DBF1CEA135581
:1003300094EA0C0F95EA0C0F00F0DEF82C4481EAE9
:10034000030621EA4C5123EA4C5350EA013518BF09
:1003500052EA033541F4801143F4801338D0A0FBF6
:1003600002CE4FF00005E1FB02E506F00042E0FBA3
:1003700003E54FF00006E1FB03569CF0000F18BFA9
:100380004EF0010EA4F1FF04B6F5007F64F5407451
:1003900004D25FEA4E0E6D4146EB060642EAC621E4
:1003A00041EA55514FEAC52040EA5E504FEACE2E51
:1003B000B4F1FD0C88BFBCF5E06F1ED8BEF1004F54
:1003C00008BF5FEA500E50F1000041EB045170BDD0
:1003D00006F0004646EA010140EA020081EA030114
:1003E000B4EB5C04C2BFD4EB0C0541EA045170BD10
:1003F00041F480114FF0000E013C00F3AB8014F18A
:10040000360FDEBF002001F0004170BDC4F10004D2
:10041000203C35DA0C341BDC04F11404C4F1200553
:1004200000FA05F320FA04F001FA05F240EA0200AE
:1004300001F0004221F0004110EBD37021FA04F6E4
:1004400042EB06015EEA430E08BF20EAD37070BD9E
:10045000C4F10C04C4F1200500FA04F320FA05F0FD
:1004600001FA04F240EA020001F0004110EBD370FF
:1004700041F100015EEA430E08BF20EAD37070BD6F
:10048000C4F1200500FA05F24EEA020E20FA04F348
:1004900001FA05F243EA020321FA04F001F00041F7
:1004A00021FA04F220EA020000EBD3705EEA430E68
:1004B00008BF20EAD37070BD94F0000F0FD101F097
:1004C0000046400041EB010111F4801F08BF013CD0
:1004D000F7D041EA060195F0000F18BF704703F00E
:1004E0000046520043EB030313F4801F08BF013D95
:1004F000F7D043EA0603704794EA0C0F0CEA135551
:1005000018BF95EA0C0F0CD050EA410618BF52EA0A
:100510004306D1D181EA030101F000414FF0000010
:1005200070BD50EA410606BF1046194652EA43061E
:1005300019D094EA0C0F02D150EA013613D195EA92
:100540000C0F05D152EA03361CBF104619460AD1DA
:1005500081EA030101F0004141F0FE4141F47001E4
:100560004FF0000070BD41F0FE4141F4780170BDD4
:1005700081F0004102E000BF83F0004330B54FEA54
:1005800041044FEA430594EA050F08BF90EA020FC1
:100590001FBF54EA000C55EA020C7FEA645C7FEA54
:1005A000655C00F0E2804FEA5454D4EB5555B8BF77
:1005B0006D420CDD2C4480EA020281EA030382EAE8
:1005C000000083EA010180EA020281EA0303362D7A
:1005D00088BF30BD11F0004F4FEA01314FF4801C4D
:1005E0004CEA113102D0404261EB410113F0004F5F
:1005F0004FEA03334CEA133302D0524263EB430316
:1006000094EA050F00F0A780A4F10104D5F1200EB3
:100610000DDB02FA0EFC22FA05F2801841F100010E
:1006200003FA0EF2801843FA05F359410EE0A5F1E2
:1006300020050EF1200E012A03FA0EFC28BF4CF013
:10064000020C43FA05F3C01851EBE37101F00045C9
:1006500007D54FF0000EDCF1000C7EEB00006EEBD6
:100660000101B1F5801F1BD3B1F5001F0CD3490860
:100670005FEA30004FEA3C0C04F101044FEA4452B7
:1006800012F5800F80F09A80BCF1004F08BF5FEA3E
:10069000500C50F1000041EB045141EA050130BD1E
:1006A0005FEA4C0C404141EB0101013C28BFB1F530
:1006B000801FE9D291F0000F04BF01460020B1FA7B
:1006C00081F308BF2033A3F10B03B3F120020CDA4E
:1006D0000C3208DD02F1140CC2F10C0201FA0CF02C
:1006E00021FA02F10CE002F11402D8BFC2F1200C91
:1006F00001FA02F120FA0CFCDCBF41EA0C01904047
:10070000E41AA2BF01EB0451294330BD6FEA04048F
:100710001F3C1CDA0C340EDC04F11404C4F120027A
:1007200020FA04F001FA02F340EA030021FA04F38C
:1007300045EA030130BDC4F10C04C4F1200220FAE3
:1007400002F001FA04F340EA0300294630BD21FA21
:1007500004F0294630BD94F0000F83F4801306BFE7
:1007600081F480110134013D4EE77FEA645C18BFDB
:100770007FEA655C29D094EA050F08BF90EA020F72
:1007800005D054EA000C04BF1946104630BD91EA6A
:10079000030F1EBF0021002030BD5FEA545C05D16D
:1007A0004000494128BF41F0004130BD14F58004AC
:1007B0003CBF01F5801130BD01F0004545F0FE4120
:1007C00041F470014FF0000030BD7FEA645C1ABF55
:1007D000194610467FEA655C1CBF0B46024650EA8C
:1007E000013406BF52EA033591EA030F41F40021B8
:1007F00030BD00BF90F0000F04BF0021704730B53E
:100800004FF4806404F132044FF000054FF0000112
:1008100050E700BF90F0000F04BF0021704730B5D3
:100820004FF4806404F1320410F0004548BF4042A8
:100830004FF000013EE700BF42004FEAE2014FEAFD
:1008400031014FEA02701FBF12F07F4393F07F4FD8
:1008500081F06051704732F07F4208BF704793F0DB
:100860007F4F04BF41F40021704730B54FF46074EE
:1008700001F0004521F000411CE700BF50EA0102F1
:1008800008BF704730B54FF000050AE050EA01029A
:1008900008BF704730B511F0004502D5404261EB0A
:1008A00041014FF4806404F132045FEA915C3FF44B
:1008B000D8AE4FF003025FEADC0C18BF03325FEAE8
:1008C000DC0C18BF033202EBDC02C2F1200300FA99
:1008D00003FC20FA02F001FA03FE40EA0E0021FABE
:1008E00002F11444BDE600BF70B54FF0FF0C4CF4AC
:1008F000E06C1CEA11541DBF1CEA135594EA0C0F5E
:1009000095EA0C0F00F0DEF82C4481EA030621EA98
:100910004C5123EA4C5350EA013518BF52EA0335D3
:1009200041F4801143F4801338D0A0FB02CE4FF085
:100930000005E1FB02E506F00042E0FB03E54FF0B5
:100940000006E1FB03569CF0000F18BF4EF0010EAD
:10095000A4F1FF04B6F5007F64F5407404D25FEAA9
:100960004E0E6D4146EB060642EAC62141EA55515C
:100970004FEAC52040EA5E504FEACE2EB4F1FD0C9E
:1009800088BFBCF5E06F1ED8BEF1004F08BF5FEA1C
:10099000500E50F1000041EB045170BD06F00046CE
:1009A00046EA010140EA020081EA0301B4EB5C047B
:1009B000C2BFD4EB0C0541EA045170BD41F4801173
:1009C0004FF0000E013C00F3AB8014F1360FDEBF98
:1009D000002001F0004170BDC4F10004203C35DA74
:1009E0000C341BDC04F11404C4F1200500FA05F3F7
:1009F00020FA04F001FA05F240EA020001F0004298
:100A000021F0004110EBD37021FA04F642EB06010D
:100A10005EEA430E08BF20EAD37070BDC4F10C0437
:100A2000C4F1200500FA04F320FA05F001FA04F2FB
:100A300040EA020001F0004110EBD37041F10001E7
:100A40005EEA430E08BF20EAD37070BDC4F12005F2
:100A500000FA05F24EEA020E20FA04F301FA05F25A
:100A600043EA020321FA04F001F0004121FA04F202
:100A700020EA020000EBD3705EEA430E08BF20EAD2
:100A8000D37070BD94F0000F0FD101F0004640000C
:100A900041EB010111F4801F08BF013CF7D041EA8E
:100AA000060195F0000F18BF704703F00046520092
:100AB00043EB030313F4801F08BF013DF7D043EA63
:100AC0000603704794EA0C0F0CEA135518BF95EA19
:100AD0000C0F0CD050EA410618BF52EA4306D1D1A0
:100AE00081EA030101F000414FF0000070BD50EABF
:100AF000410606BF1046194652EA430619D094EA49
:100B00000C0F02D150EA013613D195EA0C0F05D132
:100B100052EA03361CBF104619460AD181EA030186
:100B200001F0004141F0FE4141F470014FF000003E
:100B300070BD41F0FE4141F4780170BD70B54FF0D9
:100B4000FF0C4CF4E06C1CEA11541DBF1CEA135559
:100B500094EA0C0F95EA0C0F00F0A7F8A4EB05043B
:100B600081EA030E52EA03354FEA013100F0888032
:100B70004FEA03334FF0805545EA131343EA1263FB
:100B80004FEA022245EA111545EA10654FEA0026B0
:100B90000EF000419D4208BF964244F1FD0404F569
:100BA000407402D25B084FEA3202B61A65EB0305C5
:100BB0005B084FEA32024FF480104FF4002CB6EB82
:100BC000020E75EB030E22BFB61A754640EA0C0002
:100BD0005B084FEA3202B6EB020E75EB030E22BF42
:100BE000B61A754640EA5C005B084FEA3202B6EB83
:100BF000020E75EB030E22BFB61A754640EA9C0042
:100C00005B084FEA3202B6EB020E75EB030E22BF11
:100C1000B61A754640EADC0055EA060E18D04FEACF
:100C2000051545EA16754FEA06164FEAC30343EA6F
:100C300052734FEAC2025FEA1C1CC0D111F4801F3C
:100C40000BD141EA00014FF000004FF0004CB6E735
:100C500011F4801F04BF01430020B4F1FD0C88BFD4
:100C6000BCF5E06F3FF6AFAEB5EB030C04BFB6EBDF
:100C7000020C5FEA500C50F1000041EB045170BDD2
:100C80000EF0004E4EEA113114EB5C04C2BFD4EBFF
:100C90000C0541EA045170BD41F480114FF0000E83
:100CA000013C90E645EA060E8DE60CEA135594EAFF
:100CB0000C0F08BF95EA0C0F3FF43BAF94EA0C0F02
:100CC0000AD150EA01347FF434AF95EA0C0F7FF477
:100CD00025AF104619462CE795EA0C0F06D152EACB
:100CE00003353FF4FDAE1046194622E750EA4106AF
:100CF00018BF52EA43067FF4C5AE50EA41047FF4C0
:100D00000DAF52EA43057FF4EBAE12E74FF0FF3C24
:100D100006E000BF4FF0010C02E000BF4FF0010CF5
:100D20004DF804CD4FEA410C7FEA6C5C4FEA430C6E
:100D300018BF7FEA6C5C1BD001B050EA410C0CBFBD
:100D400052EA430C91EA030F02BF90EA020F00201F
:100D5000704710F1000F91EA030F58BF994208BF86
:100D600090422CBFD8176FEAE37040F00100704743
:100D70004FEA410C7FEA6C5C02D150EA013C07D19A
:100D80004FEA430C7FEA6C5CD6D152EA033CD3D0E5
:100D90005DF8040B704700BF8446104662468C46DF
:100DA0001946634600E000BF01B5FFF7B7FF002812
:100DB00048BF10F1000F01BD4DF808EDFFF7F4FF3B
:100DC0000CBF012000205DF808FB00BF4DF808EDC6
:100DD000FFF7EAFF34BF012000205DF808FB00BFE9
:100DE0004DF808EDFFF7E0FF94BF012000205DF80B
:100DF00008FB00BF4DF808EDFFF7CEFF94BF0120C0
:100E000000205DF808FB00BF4DF808EDFFF7C4FFB8
:100E100034BF012000205DF808FB00BF4FEA41020B
:100E200012F5001215D211D56FF47873B3EB62523C
:100E300012D94FEAC12343F0004343EA505311F063
:100E4000004F23FA02F018BF404270474FF00000F5
:100E5000704750EA013005D111F0004008BF6FF033
:0C0E6000004070474FF00000704700BFDA
:0400000508000000EF
:00000001FF
